:100000000C945C000C94B7010C9490010C94790052
:100010000C9479000C9479000C9479000C9479007C
:100020000C9479000C9479000C9479000C9479006C
:100030000C9479000C9479000C9479000C9479005C
:100040000C9446010C9479000C9479000C9479007E
:100050000C9479000C9479000C9479000C9479003C
:100060000C9479000C947900000000080002010053
:100070000003040700000000000000000000000072
:10008000250028002B0000000000240027002A0083
:10009000040404040404040402020202020203032E
:1000A0000303030301020408102040800102040836
:1000B000102001020408102011241FBECFEFD8E049
:1000C000DEBFCDBF11E0A0E0B1E0E4E4F5E002C0A6
:1000D00005900D92A430B107D9F721E0A4E0B1E07A
:1000E00001C01D92A331B207E1F70E94DE010C941A
:1000F000A0020C940000F89480910D0190910E01E3
:1001000021E030E0009711F030E020E030930E0164
:1001100020930D0128E833E1009711F420ED37E03A
:100120003093120120931101892B41F088EA91E666
:100130009093100180930F017894089588EE93E0D6
:10014000F7CF90E0FC01E859FF4F2491FC01EC55FA
:10015000FF4F3491FC01E057FF4FE491EE23C9F0CB
:10016000222339F0233001F1A8F4213019F1223093
:1001700029F1F0E0EE0FFF1FE458FF4FA591B49175
:100180008FB7F894EC91611126C030953E233C93D3
:100190008FBF08952730A9F02830C9F0243049F7DF
:1001A000809180008F7D03C0809180008F77809345
:1001B0008000DFCF84B58F7784BDDBCF84B58F7DA2
:1001C000FBCF8091B0008F778093B000D2CF809129
:1001D000B0008F7DF9CF3E2BDACF3FB7F8948091F6
:1001E000090190910A01A0910B01B0910C0126B573
:1001F000A89B05C02F3F19F00196A11DB11D3FBF5F
:10020000BA2FA92F982F8827BC01CD01620F711D2D
:10021000811D911D42E0660F771F881F991F4A9527
:10022000D1F708958F929F92AF92BF92CF92DF92B3
:10023000EF92FF926B017C010E94ED004B015C018B
:10024000C114D104E104F104B9F00E94ED00681971
:1002500079098A099B09683E73408105910580F3FD
:1002600021E0C21AD108E108F10888EE880E83E087
:10027000981EA11CB11CE4CFFF90EF90DF90CF90AF
:10028000BF90AF909F908F90089508951F920F9206
:100290000FB60F9211242F933F938F939F93AF9399
:1002A000BF938091050190910601A0910701B09143
:1002B00008013091040123E0230F2D3758F50196F2
:1002C000A11DB11D209304018093050190930601A7
:1002D000A0930701B09308018091090190910A0150
:1002E000A0910B01B0910C010196A11DB11D80934D
:1002F000090190930A01A0930B01B0930C01BF91E7
:10030000AF919F918F913F912F910F900FBE0F90C2
:100310001F90189526E8230F0296A11DB11DD2CF7C
:100320001F920F920FB60F9211242F933F934F936A
:100330005F936F937F938F939F93AF93BF93EF934D
:10034000FF93E0910201F09103010995FF91EF9174
:10035000BF91AF919F918F917F916F915F914F91DD
:100360003F912F910F900FBE0F901F9018951F92E5
:100370000F920FB60F9211242F933F934F935F93D9
:100380006F937F938F939F93AF93BF93EF93FF935D
:10039000E0910001F09101010995FF91EF91BF916A
:1003A000AF919F918F917F916F915F914F913F910D
:1003B0002F910F900FBE0F901F901895789484B5D1
:1003C000826084BD84B5816084BD85B5826085BD51
:1003D00085B5816085BD80916E00816080936E00DF
:1003E00010928100809181008260809381008091D1
:1003F0008100816080938100809180008160809382
:1004000080008091B10084608093B1008091B00041
:1004100081608093B00080917A00846080937A003C
:1004200080917A00826080937A0080917A00816066
:1004300080937A0080917A00806880937A0010928D
:10044000C100F894EBEAF0E02491E7E9F0E0849150
:10045000882399F090E0880F991FFC01EA57FF4F1D
:10046000A591B491FC01E458FF4F859194918FB709
:10047000F894EC91E22BEC938FBFE6EAF0E0249144
:10048000E2E9F0E084918823C1F090E0880F991FA1
:10049000FC01EA57FF4FC591D491FC01E458FF4F8E
:1004A000A591B4919FB7F8943881822F80958323CA
:1004B0008883EC91E22BEC939FBF8BE790E09093C5
:1004C000010180930001809169008C7F826080939C
:1004D0006900E89A81E090E090930E0180930D010D
:1004E00080ED97E0909312018093110188EE93E0E4
:1004F0009093100180930F017894C0E0D0E061E008
:1005000087E00E94A1006091110170911201072EF5
:10051000000C880B990B0E94120160E087E00E949A
:10052000A10060910F0170911001072E000C880B43
:10053000990B0E941201209711F30E940000DFCF57
:04054000F894FFCF5D
:040544004501450127
:00000001FF
